{
  "contractName": "MovieRating",
  "abi": [
    {
      "inputs": [
        {
          "internalType": "string[]",
          "name": "_movieNames",
          "type": "string[]"
        }
      ],
      "payable": false,
      "stateMutability": "nonpayable",
      "type": "constructor"
    },
    {
      "constant": true,
      "inputs": [
        {
          "internalType": "uint256",
          "name": "",
          "type": "uint256"
        }
      ],
      "name": "movieRatings",
      "outputs": [
        {
          "internalType": "uint256",
          "name": "totalRating",
          "type": "uint256"
        },
        {
          "internalType": "uint256",
          "name": "totalRater",
          "type": "uint256"
        },
        {
          "internalType": "bool",
          "name": "exist",
          "type": "bool"
        }
      ],
      "payable": false,
      "stateMutability": "view",
      "type": "function"
    },
    {
      "constant": false,
      "inputs": [
        {
          "internalType": "string",
          "name": "_movieName",
          "type": "string"
        }
      ],
      "name": "add",
      "outputs": [],
      "payable": false,
      "stateMutability": "nonpayable",
      "type": "function"
    },
    {
      "constant": false,
      "inputs": [
        {
          "internalType": "uint256",
          "name": "_movieId",
          "type": "uint256"
        },
        {
          "internalType": "uint256",
          "name": "_rating",
          "type": "uint256"
        }
      ],
      "name": "rate",
      "outputs": [],
      "payable": false,
      "stateMutability": "nonpayable",
      "type": "function"
    },
    {
      "constant": true,
      "inputs": [],
      "name": "getMovies",
      "outputs": [
        {
          "internalType": "string[]",
          "name": "",
          "type": "string[]"
        }
      ],
      "payable": false,
      "stateMutability": "view",
      "type": "function"
    }
  ],
  "bytecode": "0x60806040523480156200001157600080fd5b5060405162000dc138038062000dc18339818101604052620000379190810190620002e0565b336000806101000a81548173ffffffffffffffffffffffffffffffffffffffff021916908373ffffffffffffffffffffffffffffffffffffffff16021790555060008090505b8151811015620001505760028282815181106200009657fe5b60200260200101519080600181540180825580915050906001820390600052602060002001600090919290919091509080519060200190620000da92919062000158565b50506000600160008381526020019081526020016000206000018190555060006001600083815260200190815260200160002060010181905550600180600083815260200190815260200160002060020160006101000a81548160ff02191690831515021790555080806001019150506200007d565b5050620003df565b828054600181600116156101000203166002900490600052602060002090601f016020900481019282601f106200019b57805160ff1916838001178555620001cc565b82800160010185558215620001cc579182015b82811115620001cb578251825591602001919060010190620001ae565b5b509050620001db9190620001df565b5090565b6200020491905b8082111562000200576000816000905550600101620001e6565b5090565b90565b600082601f8301126200021957600080fd5b8151620002306200022a8262000353565b62000325565b9150818183526020840193506020810190508360005b838110156200027a57815186016200025f888262000284565b84526020840193506020830192505060018101905062000246565b5050505092915050565b600082601f8301126200029657600080fd5b8151620002ad620002a7826200037c565b62000325565b91508082526020830160208301858383011115620002ca57600080fd5b620002d7838284620003a9565b50505092915050565b600060208284031215620002f357600080fd5b600082015167ffffffffffffffff8111156200030e57600080fd5b6200031c8482850162000207565b91505092915050565b6000604051905081810181811067ffffffffffffffff821117156200034957600080fd5b8060405250919050565b600067ffffffffffffffff8211156200036b57600080fd5b602082029050602081019050919050565b600067ffffffffffffffff8211156200039457600080fd5b601f19601f8301169050602081019050919050565b60005b83811015620003c9578082015181840152602081019050620003ac565b83811115620003d9576000848401525b50505050565b6109d280620003ef6000396000f3fe608060405234801561001057600080fd5b506004361061004c5760003560e01c80632c53b4061461005157806343bebfbf1461006f5780635bee98371461008b578063b0c8f9dc146100bd575b600080fd5b6100596100d9565b6040516100669190610797565b60405180910390f35b610089600480360361008491908101906105bb565b6101c2565b005b6100a560048036036100a09190810190610592565b6102c7565b6040516100b493929190610819565b60405180910390f35b6100d760048036036100d29190810190610551565b6102fe565b005b60606002805480602002602001604051908101604052809291908181526020016000905b828210156101b9578382906000526020600020018054600181600116156101000203166002900480601f0160208091040260200160405190810160405280929190818152602001828054600181600116156101000203166002900480156101a55780601f1061017a576101008083540402835291602001916101a5565b820191906000526020600020905b81548152906001019060200180831161018857829003601f168201915b5050505050815260200190600101906100fd565b50505050905090565b816001600082815260200190815260200160002060020160009054906101000a900460ff16610226576040517f08c379a000000000000000000000000000000000000000000000000000000000815260040161021d906107d9565b60405180910390fd5b81600081118015610238575060058111155b610277576040517f08c379a000000000000000000000000000000000000000000000000000000000815260040161026e906107f9565b60405180910390fd5b826001600086815260200190815260200160002060000160008282540192505081905550600160008581526020019081526020016000206001016000815480929190600101919050555050505050565b60016020528060005260406000206000915090508060000154908060010154908060020160009054906101000a900460ff16905083565b6000809054906101000a900473ffffffffffffffffffffffffffffffffffffffff1673ffffffffffffffffffffffffffffffffffffffff163373ffffffffffffffffffffffffffffffffffffffff161461038d576040517f08c379a0000000000000000000000000000000000000000000000000000000008152600401610384906107b9565b60405180910390fd5b6000809050600280549050905060028290806001815401808255809150509060018203906000526020600020016000909192909190915090805190602001906103d7929190610443565b50506000600160008381526020019081526020016000206000018190555060006001600083815260200190815260200160002060010181905550600180600083815260200190815260200160002060020160006101000a81548160ff0219169083151502179055505050565b828054600181600116156101000203166002900490600052602060002090601f016020900481019282601f1061048457805160ff19168380011785556104b2565b828001600101855582156104b2579182015b828111156104b1578251825591602001919060010190610496565b5b5090506104bf91906104c3565b5090565b6104e591905b808211156104e15760008160009055506001016104c9565b5090565b90565b600082601f8301126104f957600080fd5b813561050c6105078261087d565b610850565b9150808252602083016020830185838301111561052857600080fd5b610533838284610925565b50505092915050565b60008135905061054b81610978565b92915050565b60006020828403121561056357600080fd5b600082013567ffffffffffffffff81111561057d57600080fd5b610589848285016104e8565b91505092915050565b6000602082840312156105a457600080fd5b60006105b28482850161053c565b91505092915050565b600080604083850312156105ce57600080fd5b60006105dc8582860161053c565b92505060206105ed8582860161053c565b9150509250929050565b6000610603838361068f565b905092915050565b6000610616826108b9565b61062081856108dc565b935083602082028501610632856108a9565b8060005b8581101561066e578484038952815161064f85826105f7565b945061065a836108cf565b925060208a01995050600181019050610636565b50829750879550505050505092915050565b6106898161090f565b82525050565b600061069a826108c4565b6106a481856108ed565b93506106b4818560208601610934565b6106bd81610967565b840191505092915050565b60006106d5601a836108fe565b91507f4f6e6c79206f776e65722063616e206164642061206d6f7669650000000000006000830152602082019050919050565b60006107156013836108fe565b91507f4d6f76696520446f65736e2774206578697374000000000000000000000000006000830152602082019050919050565b6000610755601f836108fe565b91507f526174696e672073686f756c64206265206265747765656e203120746f2035006000830152602082019050919050565b6107918161091b565b82525050565b600060208201905081810360008301526107b1818461060b565b905092915050565b600060208201905081810360008301526107d2816106c8565b9050919050565b600060208201905081810360008301526107f281610708565b9050919050565b6000602082019050818103600083015261081281610748565b9050919050565b600060608201905061082e6000830186610788565b61083b6020830185610788565b6108486040830184610680565b949350505050565b6000604051905081810181811067ffffffffffffffff8211171561087357600080fd5b8060405250919050565b600067ffffffffffffffff82111561089457600080fd5b601f19601f8301169050602081019050919050565b6000819050602082019050919050565b600081519050919050565b600081519050919050565b6000602082019050919050565b600082825260208201905092915050565b600082825260208201905092915050565b600082825260208201905092915050565b60008115159050919050565b6000819050919050565b82818337600083830152505050565b60005b83811015610952578082015181840152602081019050610937565b83811115610961576000848401525b50505050565b6000601f19601f8301169050919050565b6109818161091b565b811461098c57600080fd5b5056fea365627a7a72315820f98cd4579f42013101a4112c641368bb0d3b84ccb64a93717e989e1908f47d9c6c6578706572696d656e74616cf564736f6c63430005110040",
  "source": "// SPDX-License-Identifier: MIT\r\npragma solidity >=0.4.22 <0.8.0;\r\npragma experimental ABIEncoderV2;\r\n\r\ncontract MovieRating {\r\n    \r\n    address owner;\r\n    \r\n    struct Rating {\r\n        uint totalRating;\r\n        uint totalRater;\r\n        bool exist;\r\n    }\r\n    \r\n    mapping(uint => Rating) public movieRatings;\r\n    \r\n    string[] internal movies;\r\n    \r\n    constructor(string[] memory _movieNames) public {\r\n        owner = msg.sender;\r\n        for(uint i = 0; i < _movieNames.length; i++) {\r\n            movies.push(_movieNames[i]);\r\n            movieRatings[i].totalRating = 0;\r\n            movieRatings[i].totalRater = 0;\r\n            movieRatings[i].exist = true;\r\n        }\r\n    }\r\n    \r\n    modifier onlyOwner() {\r\n        require(msg.sender == owner, \"Only owner can add a movie\");\r\n        _;\r\n    }\r\n    \r\n    modifier rateLimit(uint _rating) {\r\n        require(_rating > 0 && _rating <= 5, \"Rating should be between 1 to 5\");\r\n        _;\r\n    }\r\n    \r\n    modifier checkMovieExist(uint _movieId){\r\n        require(movieRatings[_movieId].exist, \"Movie Doesn't exist\");\r\n        _;\r\n    }\r\n    \r\n    function add(string memory _movieName) public onlyOwner {\r\n        uint count = 0;\r\n        count = movies.length;\r\n          \r\n        movies.push(_movieName);\r\n        movieRatings[count].totalRating = 0;\r\n        movieRatings[count].totalRater = 0;\r\n        movieRatings[count].exist = true;\r\n    }\r\n    \r\n    function rate(uint _movieId, uint _rating) public checkMovieExist(_movieId) rateLimit(_rating) {\r\n        movieRatings[_movieId].totalRating += _rating;\r\n        movieRatings[_movieId].totalRater++;\r\n    }\r\n    \r\n    function getMovies() public view returns(string[] memory) {\r\n        return movies;\r\n    }\r\n}",
  "sourcePath": "D:/Courses/SimpliLearn/Blockchain Certification Training/project/movie-rating-angular/contracts/MovieRating.sol",
  "compiler": {
    "name": "solc",
    "version": "0.5.17+commit.d19bba13.Emscripten.clang"
  },
  "schemaVersion": "3.3.1",
  "updatedAt": "2020-11-30T06:08:08.172Z",
  "networkType": "ethereum",
  "devdoc": {
    "methods": {}
  },
  "userdoc": {
    "methods": {}
  }
}